:020000040002F8
:1060000070530020DD630200E5630200E7630200D5
:10601000E9630200EB630200ED6302000000000090
:10602000000000000000000000000000EF6302001C
:10603000F163020000000000F3630200F563020058
:10604000C1670200F7630200816A0200F763020081
:10605000F7630200F7630200A9650200F76302001C
:10606000F7630200F7630200F7630200F7630200C0
:10607000F7630200F7630200F7630200F7630200B0
:10608000F763020019680200F7630200F763020079
:106090009D680200F7630200A1680200F763020036
:1060A000F7630200F7630200F7630200F763020080
:1060B000F7630200F7630200000000000000000028
:1060C000F7630200F7630200F7630200F763020060
:1060D000F7630200F7630200F7630200F763020050
:1060E000F7630200F7630200F7630200000000009C
:1060F00000000000F763020000000000F7630200E8
:10610000000000000000000000000000000000008F
:10611000000000000000000000000000000000007F
:10612000000000000000000000000000000000006F
:10613000000000000000000000000000000000005F
:10614000000000000000000000000000000000004F
:10615000000000000000000000000000000000003F
:10616000000000000000000000000000000000002F
:10617000000000000000000000000000000000001F
:10618000000000000000000000000000000000000F
:1061900000000000000000000000000000000000FF
:1061A00000000000000000000000000000000000EF
:1061B00000000000000000000000000000000000DF
:1061C00000000000000000000000000000000000CF
:1061D00000000000000000000000000000000000BF
:1061E00000000000000000000000000000000000AF
:1061F000000000000000000000000000000000009F
:10620000DFF80CD000F092F900480047DDA0020052
:106210007053002000B583B002900091019244F2C7
:10622000010071466A4600F011FE03B000BD000097
:1062300030B450E8012F93B2C48923448489A34227
:1062400028BF1B1B0489A34202BFBFF32F8F00206E
:1062500007E0C3EA020340E80134002CE9D14FF023
:1062600001000A6030BC704750E8012FC2EA0242C8
:1062700040E801210029F7D1704730B450E8022FDF
:106280001FFAA2F3C488A34202BFBFF32F8F0020DE
:106290000DE0C48923448489A34228BF1B1BC2EAA2
:1062A000034340E80234002CE8D14FF001000A60BB
:1062B00030BC704750E8022FC2EA224240E8022177
:1062C0000029F7D17047034653E8022FD988B2EB73
:1062D000324F4FF0000017BF92B241EA014142EA4B
:1062E000014104E05A68B2EB324F08BF012043E895
:1062F0000212002AE8D1704730B4044654E8000F77
:106300000D4644E80053002BF8D1156030BC7047AF
:1063100030B4044654E8000F40EA010544E8005355
:10632000002BF7D1156030BC704730B4044654E8F8
:10633000000F00EA010544E80053002BF7D1156077
:1063400030BC704730B4044654E8000F80EA0105C1
:1063500044E80053002BF7D1156030BC704730B4CF
:10636000044654E8000F00EB010544E80053002BFD
:10637000F7D1156030BC704730B4044654E8000FC4
:10638000A0EB010544E80053002BF7D1156030BCA9
:10639000704770B404464FF0000054E8006F0D6879
:1063A000AE4207BF44E80023012044E800630E60CA
:1063B000002B1CBF0020F0E770BC704730B40446CF
:1063C00054E8000F88422CBF451A054644E80053A4
:1063D000002BF5D1156030BC70470000064880479F
:1063E00006480047FEE7FEE7FEE7FEE7FEE7FEE7BA
:1063F000FEE7FEE7FEE7FEE7A56802000162020095
:106400002DE9F05F0546002092469B4688460646E9
:10641000814640241BE0284641464746224600F07C
:1064200074F853465A46C01A914110D31146184683
:10643000224600F016F82D1A67EB01084F46224657
:106440000120002100F00DF817EB00094E41201E3D
:10645000A4F10104DFDC484631462A464346BDE844
:10646000F09F202A04DB203A00FA02F10020704756
:106470009140C2F1200320FA03F319439040704782
:106480000048704750F0020040EA01039B0703D028
:1064900009E008C9121F08C0042AFAD203E011F863
:1064A000013B00F8013B521EF9D27047D2B201E025
:1064B00000F8012B491EFBD270470022F6E710B509
:1064C00013460A4604461946FFF7F0FF204610BD62
:1064D000421C10F8011B0029FBD1801A704730B50F
:1064E00004460020034600E05B1C934203D2E05CBC
:1064F000CD5C401BF8D030BD034611F8012B00F8ED
:10650000012B002AF9D118467047202A04DB203AD3
:1065100021FA02F00021704721FA02F3D040C2F1C3
:10652000200291400843194670470000064C074D71
:1065300006E0E06840F0010394E807009847103453
:10654000AC42F6D3FFF760FED4F70200F4F7020086
:1065500070B58C1810F8015B15F0070301D110F825
:10656000013B2A1106D110F8012B03E010F8016B52
:1065700001F8016B5B1EF9D12B0705D40023521ED5
:106580000DD401F8013BFAE710F8013BCB1A921C3D
:1065900003E013F8015B01F8015B521EF9D5A1423B
:1065A000D8D3002070BD00002DE9F04F00268DB03B
:1065B000DFF8A081B14604964FF480750124374678
:1065C0000596284604F0FEFD38B1D8F804032042B1
:1065D00003D0284604F0ECFD26432D1D64007F1CEB
:1065E000ADB2082FEDD34FF4BE74204604F0EAFD9F
:1065F00048B1204604F0DCFD46F0004604AA022122
:10660000002004F0BFFD544C16F0FF0F15D00127F9
:10661000002537420DD008EB8501D1F81005D1F8DF
:106620001015C0F3052054F82520C1F3014102B133
:1066300090477F006D1C082DEBD3002E7EDA0020E2
:10664000CDF82890411E0DF1100B07AACDF82C9023
:1066500042F82010401C91460228F9D300252E460E
:10666000A11911F8607F91F9000027F0C008401CC3
:1066700040D007A9404604F01EF840B34FEA971AED
:10668000404601F001FF54F820701FB1BAF1030F2A
:1066900003D006E0BAF1030F2CD10AA9404604F05A
:1066A00012F802A8CDF8088004F040FD029900EB32
:1066B0008100D0F8000704A9C0F3014002904046D1
:1066C00003F0F9FF0028029802D0022802D011E05E
:1066D00003280FD1BAF1030F08D10298022833D052
:1066E0000221404604F0FCFC6D1CEDB217B151468E
:1066F0004046B847761C042EB2D3002D21D001AA03
:106700000221002004F03EFD00205A460DF1040154
:1067100052F8206051F82030B34217D000200AAE62
:106720004FEA090351F8207042F8207056F82070A3
:1067300043F82070401C0228F4D300E001E0002D53
:106740008CD10DB0BDE8F08F0321CAE7401C0228B0
:10675000DED3F6E7006000407428002000F01F023E
:10676000012191404009800000F1E020C0F8801232
:10677000704700F01F02012191404009800000F1A4
:10678000E020C0F80011704700F01F020121914085
:106790004009800000F1E020C0F80012704749076E
:1067A000090E002806DA00F00F0000F1E02080F862
:1067B000141D704700F1E02080F8001470470000BD
:1067C00070B54FF48076304604F0B4F8114CB5053E
:1067D00060B1304604F0B5F80120C5F808036079CF
:1067E00020B9012060712168002088474FF482762B
:1067F000304604F09FF800280AD0304604F0A1F893
:106800000220C5F808032168BDE870400120084750
:1068100070BD00009022002007480021C0F8401100
:10682000C0F84411C0F84811C0F84C11C0F800116C
:10683000C0F8041107F024BE0010014000F026B992
:1068400070B50E46144900EB400001EBC00514463C
:10685000E86A183520B101280FD0022805D113E0CD
:10686000284600F047F9A04201D2002411E0224658
:106870003146284600F076F90BE0284600F03AF958
:10688000A042F4D20446F2E73146284600F03DF932
:106890000446204670BD0000E830002007F03EBDF1
:1068A00005F024BA30B54FF0805000228300D0F8B4
:1068B0003011C3F80C21C3F81021624B1A60624BEF
:1068C0001B68624C2360604B1B1D1B68241D2360EA
:1068D0005D4B08331B68241D23605B4B0C331B6826
:1068E000241D2360584B10331B68241D2360564B16
:1068F00014331B68241D2360534B18331B68534CFF
:1069000020342360504B1C331B68241D23604E4BE6
:1069100020331B68241D23604B4B24331B68241D2C
:106920002360494B28331B68241D2360464B2C33BE
:106930001B68241D2360444B30331B68434C403498
:106940002360414B34331B68241D23603E4B383396
:106950001B68241D23603C4B3C331B68241D2360B3
:10696000394B40331B68241D23600124082902D1C0
:10697000D0F8343113B1082904D006E0354B34493E
:10698000196005E0D0F8343113B1082904D006E0CD
:10699000314BFB21196005E0D0F8343113B10829DF
:1069A00008D00EE090F858322C48016863F30301D8
:1069B000016002E0D0F834311BB929494FF400706E
:1069C000086028480168C90702D06FF00101016022
:1069D0002548016841F470010160BFF34F8FBFF398
:1069E0006F8F4FF01021D1F80002002803DBD1F89F
:1069F0000402002822DA1D4B1C601D480468002C8C
:106A0000FCD01224C1F800420568002DFCD0C1F86A
:106A1000044201680029FCD01A6001680029FCD0FA
:106A2000BFF34F8F10487C380168124A01F4E061CF
:106A300011430160BFF34F8F00BFFDE70F490E48C0
:106A4000086030BD380500400404001020C5004037
:106A5000488103008C56004018F50040E40E0040C9
:106A6000409602400004004088ED00E004E501404B
:106A700000E401400400FA050090D003A0230020A8
:106A800001480068004700009822002010B5124C11
:106A900002202061606111A0A06104F17800E06132
:106AA0004FF4007020620020A06260620BA1A1641C
:106AB000E06204F51E71E1641021A065C4E91410C0
:106AC000E06509A1E01DFFF717FD08A12046FFF7CB
:106AD00013FD2020A07110BDE83000205465726DB8
:106AE000696E616C000000005254540053454747E2
:106AF000455200000269C1688A4203D88068401A82
:106B0000104400E0501A401E70472DE9F047C46859
:106B10001746894606464FF000083069A04201D961
:106B2000051B02E0B168201A0D1AB0686D1E001B2B
:106B3000A84200D80546BD4200D33D4670682A46AB
:106B400020444946FFF7A0FCB0687F1B2C44A844B2
:106B5000A944A04200D10024F460002FDDD14046BA
:106B6000BDE8F0872DE9F04104468846D4E90207E4
:106B7000C51BE168606816460844B54206D941461F
:106B8000FFF782FCB819E060BDE8F0812A46414673
:106B9000FFF77AFC761B08EB050132466068FFF7C9
:106BA00073FCE660F0E702E008C8121F08C1002A83
:106BB000FAD170477047002001E001C1121F002A7E
:106BC000FBD170470121202803DA814005480140AC
:106BD00003E0402802DA2038814009B101207047E3
:106BE00000207047FC06FFBD10B560B159B10278B6
:106BF0000B785208B2EB530F05D10622401C491CFA
:106C0000FFF76DFC08B1002010BD012010BD80070A
:106C100001D00020704701207047C3688B4206D81E
:106C200011440069491E814201D8012070470020AB
:106C3000704710B501220221002001F039FA08B195
:106C4000072818D107220221012001F031FA08B1EA
:106C5000072810D100210A22084601F029FA08B1BC
:106C6000072808D10B220121002001F021FA08B1E8
:106C7000072800D1002010BD00B5ABB0AC2168469C
:106C8000FFF71BFC02208DF8000001208DF80200A8
:106C900006218DF80310ADF810008DF87C000D4929
:106CA0004FF496700591229044F2506023900A4868
:106CB00029906946094800F0DDFB20B1084A4FF4ED
:106CC0003071FFF7A7FA0121044800F0D0FB2BB088
:106CD00000BD000012220020D1C0020018240020B4
:106CE000386D020010B578B10E480321008801EB21
:106CF00000400DA104F040FC06F06CFA002810D012
:106D00000DA240F27E2108E003210F4800F091FC23
:106D1000002806D008A24FF44271BDE81040FFF7EA
:106D200079BA10BDE8230020457261736520626F57
:106D30006E647321000000002E2E5C2E2E5C2E2E21
:106D40005C6D61696E2E63001824002070B58CB0F4
:106D500015460E4600236C46C3F10F01415CE15419
:106D60005B1C102BF8D30D2104F11000FFF7A5FBDD
:106D70000020C0F10F02315C2244401C1174032832
:106D8000F7D3684646DF0020C0F10F01214491F897
:106D900020102954401C0328F6D30CB070BD0220EB
:106DA00001F08CB80149097900F0D6BD70220020AD
:106DB00070B50024064D06E06868012110F8340023
:106DC00005F084F8641C28788442F5D3002070BD57
:106DD000A0220020F8B515460C460646052A01D229
:106DE0000720F8BD05F06AF918B905F02DF900285B
:106DF000F7D1124900224E600C708D60C1E9042267
:106E0000C1E906220E4D0DE006EBC4002968009191
:106E100081788DF8011000780A4A694605F0A2F8D9
:106E20000028DED1641EE4B2EED2BDE8F84004488A
:106E30000021054A001D00F0F5B80000A022002046
:106E4000E4EC0200F5940200ED8802002DE9FE4317
:106E500014460F46804672B604F052FC04F07CFAE9
:106E60000028FBD10125274EB8F1010F28D06FF47F
:106E7000805118EB010028D0B0F5405F2CD06FF4A2
:106E80004051C84208D13088238805EB00401EA13C
:106E9000626804F07CFB06E030883A4605EB00406F
:106EA00020A104F06DFB25480068C00700D000BE9B
:106EB000224603B039464046BDE8F04300F080B8B2
:106EC00030881FA105EB004003E0308824A105EBCA
:106ED000004004F051FBE6E7A06804F0B1FF034670
:106EE000D4E90001CDE900100297308825A105EB17
:106EF0000040A26804F05CFB30882CA105EB004048
:106F0000E7E70000E8230020415353455254494F1E
:106F10004E204641494C45442061742025733A2552
:106F200075000000554E4B4E4F574E204641554C74
:106F3000542061742030782530385800F0ED00E09E
:106F4000534F46544445564943453A2041535345CF
:106F50005254494F4E204641494C454400000000E0
:106F6000534F46544445564943453A20494E5641AD
:106F70004C4944204D454D4F5259204143434553C0
:106F8000530000004552524F52202575205B257357
:106F90005D2061742025733A25750D0A50432061E8
:106FA000743A20307825303878000000456E64202F
:106FB0006F66206572726F72207265706F727400F6
:106FC00008B501238DF800309DF80030144B18608F
:106FD00059609A606FF48041401807D001280FD1A2
:106FE000DA60D86800889861D86807E01A61186983
:106FF0008068586118690068986118694068D861AC
:10700000186858689868D868186958699869D8697C
:1070100072B600BF9DF800000028FBD162B608BD23
:1070200000290020074B9B7823B12AB120B10068CA
:10703000037C1BB1082070470720704741744261F0
:10704000002070472029002070B506F0A9FB1048E9
:1070500000240B21047044700E4D817014206C606C
:107060002C706C70FFF77AFB07211420FFF797FB59
:107070001420FFF77EFB0848046007211120FFF76A
:107080008EFB0548001F0068A860002070BD00004E
:1070900020290020C0220020081501402DE9FC47CE
:1070A000DFF8789099F8023073B368B3052902D2FB
:1070B0000720BDE8FC87436933B3437C012B25D00F
:1070C000002704460025884616468DF8005068467D
:1070D00000F038F801A807F0DFFAC8B1012101700B
:1070E0000F4944600968C0E90218C0E904769DF8B8
:1070F000040089F801009DF8000000F047F8142012
:10710000FFF742FB2846D4E70820D2E70F46D8E72E
:1071100004259DF8000000F039F8F3E7202900204D
:10712000041501400649897839B130B1416921B16E
:1071300000210174022107F07FB908207047000088
:107140002029002030B5EFF3108172B60D4A946803
:10715000012324B10370002900D162B630BD9360D1
:107160004FF0E023D3F88051074C25401560C3F859
:107170008041D3F8844154605A17C3F88421002217
:107180000270E8E72C2A0020FC06FFBD0B498A6844
:10719000002A11D000280FD1EFF3108072B60B68CF
:1071A0004FF0E022C2F800314B68C2F804310022EF
:1071B0008A60002800D162B6704700002C2A0020A7
:1071C00002F0E8BE2DE9F047074600888EB0804601
:1071D00002F016FC824604462D4800252A46017816
:1071E000404600F0D1FB7879400734D501254FF6B1
:1071F000FF7603AB2A460721504605F01FFA01002F
:1072000004D0404606F094FC00252BE0B146314600
:10721000049802F049FB064648450FD00446014653
:10722000404602F0D7FB4046FFF7BCFD30B9404670
:1072300006F050FC4046FFF7B5FD48B12246072155
:10724000504605F071FA010003D0404606F070FC8C
:1072500000254E4506D0404605F0D4FB10B15046FF
:1072600002F0BAFB02208DF81800ADF81A80787988
:10727000400701D5012000E002208DF820008DF8A4
:10728000215006A801F0A6FC0EB0BDE8F087000072
:10729000702200202DE9FC4700251788064615803E
:1072A00090F82D001446894630B13A4621464846AA
:1072B00000F094FB050009D1B0784FF00C0A18B328
:1072C0002088C846001DB84202D95046BDE8FC8758
:1072D000684679DF0028F9D12088032108F80010DA
:1072E00020881921401C80B2208008F800102088D6
:1072F000401C80B2208000EB0801BDF8000007F0C0
:10730000F9F8218808442080F0780222C8B1218849
:1073100096F9033001F1030C4846BC45D5D84254D8
:1073200021884FF0010C491C89B2218000F801C06E
:107330002188491C89B2218009F801302088401C2D
:1073400020807068B8B1218890F9003001F1030CF9
:107350004846BC45B9D8425421880A22491C89B202
:10736000218042542188491C89B2218009F80130CA
:107370002088401C2080308950B1CDE900474B4621
:107380000622022106F1080007F09EF905009DD1B2
:10739000308A50B1CDE900474B460722032106F160
:1073A000100007F091F9050090D1308B50B1CDE974
:1073B00000474B461522142106F1180007F084F906
:1073C000050083D1306A30B13B462246494601F080
:1073D00016F90500DBD1706A30B13B4622464946BA
:1073E00002F024FF0500D2D196F82C0038B13B46BC
:1073F00022464946304606F049FC0500C7D13078A0
:1074000038B13B4622464946304602F095FF05001A
:10741000BDD128465AE718B504460020ADF8000053
:1074200013466A46204600F006F8002802D0BDF850
:107430000000204418BD70B588B182B100241588C1
:1074400003E0065D641C3444A4B2A54203D80619C7
:1074500076789E4201D08C42F3D38C4201D3002037
:1074600070BDA11C1180005D401E80B270BD80F80F
:10747000301070472DE9F0410E00044606D02CB1C3
:1074800096F87A000025012803D006E00E20BDE81A
:10749000F08196F89800012821D04FF00108A570DE
:1074A0002C2206F17801201DFEF7EEFF84F8305003
:1074B000D6F8A4006063D6F8A800A0634FF6FF706A
:1074C000A4F8A80004F19400C4F8A400C4F8AA50D9
:1074D000A4F8AE5084F8B050207810B104E0072032
:1074E000D5E7FF2084F8540004F155011F27C4F8A4
:1074F0009410A4F8987004F198023046FFF7CAFE81
:107500000028C4D116F13C0F0ED004F17401C4F868
:107510009C10A4F8A07004F1A00206F13C00FFF753
:10752000B9FE0028B3D103E0C4F89C50A4F8A050E1
:1075300084F85180208BA4F8480084F83C802564AE
:1075400084F8505060696064464604F13C020021B2
:1075500004F1540072DF002899D1267097E710B526
:107560000288102A1BD0112A20D0262A1DD1007A89
:107570000C46012801D0022817D1A0780521401C13
:10758000B0FBF1F201FB1201204600F052F8002896
:107590000BD0A16B002908D0BDE810400847C27B82
:1075A000012A02D18088A1F8A80010BD0C46002154
:1075B00084F8B2108088B4F8A8108842F5D12079F8
:1075C0000028F2D10121DFE710B50C46022801D0D6
:1075D000032810D1607800280DD000206070A178B9
:1075E000204600F026F8002805D0A16B002902D023
:1075F000BDE81040084710BD10B5044690F854008F
:1076000074DF012084F8B200002084F8B40084F80C
:1076100050000621204601F0E3FC002808D1A178A3
:10762000204600F006F810B1A16B01B18847002098
:1076300010BD2DE9F05F044600780F4638B1A77001
:10764000002003F09BFB012620B1667007E10820B3
:10765000BDE8F09F0025C4F8AA50A4F8AE5084F805
:10766000B050A07910B1A078012806D0E07968B1B7
:10767000A078012801D0022808D1616B21B184F8DB
:10768000B1600820884701E084F8B15004F1AB01F3
:1076900000200A5C0AB1304603E0401C0628F8D3FB
:1076A00000204FF002084FF0030B012F06D0022FED
:1076B0000CD0032F0FD0042F15D110E0A17929B1E0
:1076C00094F8241011B908B130460DE0E17911B1F8
:1076D00008B1404608E0207A08B1584604E0607AD4
:1076E00008B1042000E02846A070616B41B1032876
:1076F00001D0042804D1607910B194F8B200A0B18F
:1077000084F8B35004F13C0018210746FEF7D5FE7B
:1077100004F12C0084F83C60814605F0ABFA58B1C6
:1077200094F82C0084F8510008E084F8B45084F8F0
:10773000B36007208847E5E784F8516094F8240097
:1077400050B1484605F096FA20B194F8280084F824
:10775000520001E084F8526084F85050A27804F19D
:10776000AA0104F194094FF0060A052A60D2DFE865
:1077700002F078030F223F0084F83160C4F8A4506F
:10778000C4E9101584F83C808020A4F8480051E03A
:1077900084F8318094F82420384612B10722027010
:1077A00001E080F800B0228A8281C4F8A4504160D0
:1077B000E168B9603EE06069B860208BB88194F8F8
:1077C00024003D4610B184F83CA001E084F83C6000
:1077D000204606F03DFF40B185F814800421204684
:1077E00001F0FEFB20BB05211EE084F831B01DE056
:1077F000E069B860208CB88194F824003D4610B14F
:1078000084F83CA001E084F83C60204606F020FFAC
:1078100048B185F814800421204601F0E1FB38B915
:1078200084F831A002E0042184F83110C4F8A49057
:10783000A07878B13A4604F15400D4F8A41072DF6D
:1078400000287FF405AF94F8301094F8540073DFEB
:107850000028F6D1616B11B194F8310088470020FF
:10786000F6E684F83150F5E770B5040012D0014611
:107870001C221448FEF708FE1248134D05602068CC
:1078800050B17ADF002806D120680168296040687D
:10789000686005E00E2070BD0B487BDF0028FAD140
:1078A00008484FF6FF711438084A20F8041B0549B0
:1078B000343901600021FFF7B5FB0028EBD003202D
:1078C00070BD00007025002030220020E9E5020094
:1078D00010B5044600F078F8002805D02146BDE830
:1078E0001040024802F04BBE10BD00009C25002055
:1078F00070B515460E46044606F0B6FE002809D0BF
:10790000054800EB840080692A463146BDE8704096
:1079100001F0A4BB70BD00008C25002070B50546A9
:10792000002400F051F838B12946044802F027FE3F
:1079300008B1022400E00124204670BD98250020F3
:1079400010B51821034802F0F5FD182800D0C0B288
:1079500010BD00008C25002070B505460C46084679
:1079600006F082FE60B1284600F02EF840B10548CE
:10797000294600EB8400BDE87040183002F0FFBDDE
:10798000002070BD8C25002070B5054614460E46BB
:10799000084606F069FE002812D0284600F014F8C8
:1079A00000280DD00748294600EB860018301CB18E
:1079B000BDE8704002F0EEBDBDE8704002F09FBD32
:1079C00070BD00008C250020142801D300207047D2
:1079D0000146014802F0D3BD902500207CB5054644
:1079E00008880C460930904201D90C207CBD6846BD
:1079F0006DDF0028FAD121880820685420881B21D7
:107A0000401C80B2208029542088401C80B22080F5
:107A10002844DDF801100160BDF805108180208840
:107A2000801D80B220809DF80010490800D00121FF
:107A300029542088401C208000207CBD38B5028855
:107A40000446212A37D00EDC26484FF00301102AC5
:107A5000008801EB004016D0112A38D1BDE838402B
:107A600021A103F089BD3B2A32D0562A2FD180882C
:107A7000132176DF00282AD01FA240F22F21BDE873
:107A80003840FEF7C7BB20A103F076FD072000F0C9
:107A900031FB20B118A24FF40471FEF7BBFB1D4867
:107AA000A18801801C4802F0CDFE00280FD012A250
:107AB00040F21321E3E700200090A08869468FDFA1
:107AC000002804D00CA240F21F21FEF7A3FB38BD12
:107AD0008088132176DF0028F9D007A240F2272101
:107AE000CDE70000E8230020446973636F6E6E6584
:107AF000637465642E0000002E2E5C2E2E5C2E2EEC
:107B00005C6D61696E2E6300436F6E6E65637465B4
:107B1000642E0000102200200C24002010B51A4C06
:107B20000188606810290ED011292BD1401E606099
:107B300028D1FFF77EF8002824D02168002921D021
:107B4000BDE810400847D0B900210122084600F0E6
:107B5000AFFA08B107280FD107220221012000F057
:107B6000A7FA08B1072807D104220221002000F05B
:107B70009FFA20B1072802D0216801B188476068C8
:107B8000401C606010BD0000282200202DE9F04755
:107B900001883B4E40F2F3194FF6FF7510291BD0B8
:107BA00011293ED0122954D0502946D1C188F289DA
:107BB000841D914241D1618902293ED18688304697
:107BC00001F0CAFF050038D004F10C0000F012F9F2
:107BD000A8B3294630464EE0C17B87880446012978
:107BE0002BD1A846284601F0B7FF050017D02F80FB
:107BF00000202872234843464A460168C5F80A1007
:107C00004068C5F80E0004F1100105F10A0002F009
:107C10002FF86872F08900280FD129462AE0042045
:107C200013E0808801F098FF040006D06068FFF739
:107C300079FA08B105F060FF2580BDE8F087FFE71D
:107C40006868FFF76FFA0028F7D0BDE8F04705F045
:107C500053BF87880646384601F07EFF0400ECD00B
:107C60002B464A4606F1080104F10A0002F000F82A
:107C7000607221463846BDE8F04700F013BD0000B1
:107C800070250020302200202DE9F04F074685881E
:107C900002883E48012197B08346102A09D0112A54
:107CA0004BD01A2A6ED1387AB1EB101F47D201227D
:107CB00046E0364C083CA068C0430B9061680BA8B6
:107CC00002F081FC0B990CA800F07AFC2C220CA984
:107CD0006846FEF7D9FB0026E946A04610E000BF43
:107CE00009EB46005FF00004B0F804A008EB840044
:107CF0005146001D02F003FC641C1D2CF6D3761CBB
:107D00000098B042ECD8142D07D317B0E321BDE89A
:107D1000F04F1FA20420FEF77DBA2946584602F014
:107D200039FC294608F1040002F034FCF87B0128F4
:107D300028D016482946001D15E029461AE00022E1
:107D40000221B1EB101F01D2012600E000260F49ED
:107D5000083901F11000041D294682B102F01AFC15
:107D600036B12946204617B0BDE8F04F02F012BCEC
:107D70002946204617B0BDE8F04F02F0C0BB02F024
:107D8000BEFBF5E717B0BDE8F08F0000942500209A
:107D90002E2E5C2E2E5C2E2E5C2E2E5C2E2E5C2E1D
:107DA0002E5C636F6D706F6E656E74735C626C6574
:107DB0005C636F6D6D6F6E5C626C655F636F6E6E42
:107DC0005F73746174652E630000000010B5044693
:107DD0000748007800280AD0204601F0EBFC204636
:107DE00005F0B6FF2046BDE8104001F085BA10BD91
:107DF00060220020007800F00100704708B503F011
:107E00003BFF20B10D4A40F24221FEF703FA002069
:107E100000906946012003F09BFD20B1074A4FF412
:107E20001271FEF7F7F9684603F016FE002804D039
:107E3000024A4FF41371FEF7EDF908BD386D0200E8
:107E4000084908B5085C0090684603F061F9D0F86D
:107E500010050099C84010F0010000D0012080F00A
:107E6000010008BD91EB02002DE9FC410646C00768
:107E70004FF000050ED0104F00240122385D009510
:107E800000231146019503F0F9F8641C042CF4D387
:107E900000F04EF8B0070DD5074E0024361D002225
:107EA000305D032300951146019503F0E7F8641C4B
:107EB000042CF4D3BDE8FC818DEB0200094908B520
:107EC000085C0090684603F023F9D0F80425009B75
:107ED0000121994021EA0203C0F808351140C0F899
:107EE0000C1508BD8DEB02000249085C012103F06E
:107EF00036B900008DEB02000249085C002103F056
:107F00002EB900008DEB0200084908B5085C00900E
:107F1000684603F0FDF8D0F804050099C84010F059
:107F2000010000D0012080F0010008BD8DEB0200AF
:107F300010B500242046FFF7D7FF641C042CF9D3AA
:107F400010BD10B500242046FFF7D6FF641C042C9A
:107F5000F9D310BD10B50246064B4FF0FF3000219B
:107F60005C5C944201D1084610BD491C0429F7D33A
:107F700010BD000091EB020070B5094E0C004FF0EF
:107F80000005306005D0012000F054F808B102204F
:107F90002070706810B9FEF74CFE0546284670BD8B
:107FA000282200202DE9F0470D468146FFF7D2FF39
:107FB0000446042836D2DFF874801B481C4EA8F112
:107FC0000C0725B3012D0ED0022D2BD104EB44005C
:107FD00030444578002D25D0B968002922D02846A4
:107FE000BDE8F047084704EB4401755C0E44717826
:107FF00049B10E4A4FF40041093A8068FFF74EF844
:1080000008B987F80390B17808F80410E2E78068AF
:10801000FFF788F804EB4401314418F804008D7828
:10802000A842D7D0BDE8F08798EB020024220020B8
:1080300010250020042801D2FFF702BF002070475E
:108040000146154810B50088042907D007290FD02C
:108050000A291FD1BDE8104005F05CBE132176DF70
:10806000082817D0002815D00CA240F295210DE069
:10807000A0F57F41FF390DD10C48FFF7BDFA082864
:1080800008D0002806D005A240F29F21BDE810408C
:10809000FEF7C0B810BD0000102200202E2E5C2E6E
:1080A0002E5C2E2E5C6D61696E2E630018240020FC
:1080B00070B50023042810D20D4D00EB4004012AB6
:1080C00002D101290CD00022094E00EB40003044BF
:1080D00061B1012906D0022906D00723184670BDD8
:1080E0000E30C2B22A55F9E74270F7E78270F5E721
:1080F00010250020044A014600201279D20702D040
:10810000084600F04DB870471822002070B50646AA
:108110001E480024C0E90161B00720D500250122D6
:1081200011462846FFF7C4FF6D1C0446042D02D2F9
:10813000002CF4D013E094B940F266620421144894
:10814000FEF748FE04000AD1FEF732FE040006D115
:108150000F48104A0021001FFEF764FF0446F00795
:1081600012D00120FFF780FE74B909480A4A0021A5
:108170000C38FEF757FF040006D10548074A0121D5
:108180000838FEF74FFF0446204670BD1822002035
:10819000A4EB02001D840200059D02009F6D0200F9
:1081A0002DE9F05F6A4C054600266078B34618B1A9
:1081B00084F801B001F08EFD664F4FF47A694FF4F8
:1081C000C87A4FF00108182D62D2DFE805F0AC0C38
:1081D0000C31404D62676B746B74BE7D7D7D7D7D1F
:1081E000ACAFB2B5BEBE0020FFF78EFE00284FF048
:1081F000000008D0FFF778FE022D02D14FF4E160B5
:1082000008E0484606E0FFF777FE022D01D1C820BE
:1082100000E05046410CC0034FF4FA72801841F15F
:108220000001257052000023FEF7EAF801462AE01B
:108230000020FFF769FE00284FF0000004D0FFF790
:1082400053FE4FF44870E5E7FFF756FEDFE70020E6
:10825000FFF75AFE00284FF0000002D0FFF744FE5F
:10826000CFE7FFF749FED4E70020FFF74DFE0028D7
:108270004FF0000002D0FFF737FE01E0FFF73CFEB1
:10828000257041F69A1100223868FEF707FF06466E
:1082900046E00020FFF712FE257008E0002051E0C4
:1082A00025703DE084F801800120FFF707FE0022E1
:1082B00040F6CD41E8E784F801800120FFF7FEFD9C
:1082C00000224FF48041DFE77868FEF72BFF064677
:1082D000D5F1110000D02EB10220FFF705FE84F881
:1082E00002B01DE0012816D980B2C8214843C11749
:1082F000C90341EA5041C0034FF4FA72801841F1BA
:10830000000152000023FEF77BF801460022786846
:10831000FEF7C4FE06460220FFF7EEFD84F8028059
:108320003046BDE8F09F01F0D5FCB9E701F0D2FC82
:10833000B4E701F0CFFC04E001F0CCFC0020FFF733
:10834000DBFD0120FFF7D8FDAAE7FFF7FAFDA7E75D
:108350001822002098EB02002DE9F8430546861C00
:1083600000208DF8000090460F464FF00109684646
:10837000FEF7E8FE1B4C20683860D4E90001401A83
:10838000A16804F21C47081A0EE00121384602F0E9
:1083900014F901F055FE0146384602F00EF9D4E911
:1083A0000001401AA168081A401C8642EDD8B8F1B5
:1083B000000F03D0052065F3891002E0062065F365
:1083C0009F50A2682168114004EB8101C8602068B9
:1083D000304420609DF80000FEF7D8FE4846BDE816
:1083E000F8830000C42C002030B482680468531C59
:1083F0008360A154D0E901128A4202D330BC02F05A
:10840000EABA30BC70470000034803C8814201D17A
:108410000120704700207047C42C00200078022102
:10842000FFF7C0BD05494FF0FF32082841F8202072
:1084300002D3084480F858207047000074280020B8
:10844000F0B54FF0FF3512B10023082601E00823F4
:108450000C260C4C05E000BF54F823707F1C04D0A0
:108460005B1CB342F8D32846F0BD26185DB286F8EF
:10847000305044F82310002AF5D1E11881F8580053
:10848000F1E70000742800200249084490F9300008
:10849000704700007428002070B504464FF6FF7541
:1084A0000A462846AC4208D14FF480742146104653
:1084B00004F05AFDA04209D070BDFF2CFCD8214623
:1084C000104604F044FD08B1204670BD284670BD3A
:1084D00070B5084C050009D010342168002907D078
:1084E00008682060496828468847F6E70834F4E7BA
:1084F00070BD000060280020054A012120B101283C
:1085000005D19170FFF7E4BF51700020FAE7704782
:10851000602800202DE9F05F26484168F1B3DFF8BC
:1085200098B00E688146DBF8004087688078E11BD0
:1085300021F07F45ED1CB0B9DFF880804FF480302A
:10854000C8F84403C8F804031120FEF707F9112006
:10855000FEF70FF94FF0010AC8F800A02F2003F032
:10856000ADFC89F802A0B54200D23546124BE8199D
:108570003C3320F07F401860DBF800105A46091B9E
:1085800021F07F41001B20F07F40C91C81420FD9A0
:10859000106818602F2003F091FC00E004E0BDE8B3
:1085A000F05F1120FEF7F0B8BDE8F05F05F0F8B815
:1085B000BDE8F09FC02200200415014000100140DA
:1085C00073B58CB00646002000900D9880B1002451
:1085D0006D4621460DA801F0D2FF30B1009805EBA1
:1085E000400084800098401C0090641C142CF0D340
:1085F0002C2269463046FDF747FF0EB070BD2DE9CD
:10860000F04117880646B81D14460D46984202D917
:108610000C20BDE8F0813188072206290AD34FF4E7
:10862000486C4FF6FF73614501D9994202D17088B9
:10863000062801D21046ECE7604501D99842F9D1ED
:10864000994203D0984201D08142F3D80520E855E1
:1086500020881221401C80B2208029542088401C90
:1086600080B220804119308805F044FF21880844F9
:1086700080B220804119708805F03CFF21880844B1
:1086800020800020C5E7000002A240F2A511FDF7FE
:10869000C1BD00002E2E5C2E2E5C2E2E5C6D6169FD
:1086A0006E2E630038B54A7A0F4B62B100220A720F
:1086B0005969002906D001228DF80020ADF802008A
:1086C0006846884738BD0A7A62B19B684C680246A2
:1086D00019462046FEF7E2FC0028F3D0BDE83840FA
:1086E00005F00ABA5B68F1E770250020F0B585B0A7
:1086F00016460F4604461D4614220B496846FDF7F0
:10870000C3FE0A488DF80870ADF80240ADF80A6063
:108710008DF80C50017800222046FFF735F96846A5
:1087200000F058FA05B0F0BDB0EC02007022002055
:10873000F0B587B0074600200490ADF81010059002
:10874000ADF812100190029001AA04A9384690DFFA
:10875000060022D003F074FB114C0346012520884B
:108760003A4605EB00400F4902F011FFBDF8042026
:1087700012B9BDF8060038B12088BDF8063005EB07
:10878000004009A102F003FFBDF808202AB12088AB
:10879000154905EB004002F0F3FE07B03046F0BD8E
:1087A000B823002054F0020054686520726571758A
:1087B00065737465642054582F5258207061636B40
:1087C0006574206C656E67746820697320746F6FC0
:1087D000206C6F6E672062792025752F2575206FBC
:1087E00063746574732E0000A0F0020030B5044677
:1087F00085B000211B4804F0AAFB00282FD00025DB
:10880000204600F006FF68B1112812D086281BD040
:10881000A0F54051023903D00146204605F074F915
:10882000294607E005B029462046BDE8304001F062
:10883000E5BB0121204601F0E1FB05B00021BDE8C8
:108840003040084804F0B7BB142207496846FDF7DA
:108850001BFEADF80240684600F098F9E0E705B06D
:1088600030BD000039220020D8EB02007FB50C4655
:1088700010B1012004B070BD2079002638B141F656
:108880001D5501281BD0022826D00F20F2E7022018
:10889000207102960396E0680190694601A804F0F1
:1088A000DBFE50B102988188E18000882081BDF80C
:1088B0000010029804F04EFFDCE70A20DAE70A4BCA
:1088C0006A460021A01D04F083FE38B1064918391C
:1088D0008E61CE610A28CDD12846CBE70248818837
:1088E000019804F037FFF5E7002300202DE9F04759
:1088F0000025DFF88C803CE06068002100EBC506B5
:10890000012032789146FDF7ACFDD4E9062300EA58
:10891000020701EA030C57EA0C0728D082438B4375
:108920004846C4E9062303F087FB32788246914625
:1089300001200021FDF795FDD4E9042300EA02049B
:1089400001EA03074A4650460021FDF78AFD4440EC
:108950004F403C430BD17078012801D0012100E049
:108960000021726881EA0A010AB1484690476D1CED
:10897000EDB298F8000044468542BDD3BDE8F087CB
:10898000A022002010B50021024801F031FE80F342
:10899000100010BDE03000200E4910B50A784C7868
:1089A0000023A24212D0521CD2B20A70022A00D175
:1089B0000B70084A0B780C3252F82320026088684A
:1089C000104420F07F408860012010BD036000202B
:1089D00010BD0000C022002013460A460021FFF708
:1089E00085BE00002DE9F843104D0F4680461E4617
:1089F00091466946286801F056FD040014D01C21F8
:108A0000FDF75BFD01202071C4F81490380BC4F809
:108A10000080C4E902606946286801F065FD04F041
:108A20006BFD0020BDE8F8830420FBE780ED020029
:108A300010B503780022072B06D2DFE803F0050407
:108A40000610202930000A7010BD01230B70038925
:108A50008B818388CB81C06888600A7410BD022234
:108A60000A7002898A818288CA81C2688A60807D90
:108A7000062802D00020087410BD0120FBE7032265
:108A80000A70C2888A810289CA81C068886010BD64
:108A900004230B70C0888881CA818A6010BD0520BC
:108AA000087010BD70B5064D0646002455F8241018
:108AB00009B130468847641C042CF7D370BD000010
:108AC000442A002030B50446006887B00D4680680F
:108AD00000281FD018216846FDF7EFFC0195A0681B
:108AE0000590207910B1012810D107E001208DF800
:108AF000000020690290E068039005E002208DF8F4
:108B00000000E068000302906069049020688168BA
:108B10006846884707B030BD70B586B015460C0072
:108B2000064619D0112C17D0082C15D014216846F0
:108B3000FDF7C3FCADF80260304600F061FFADF810
:108B400004000D2C0AD0862C1CD007208DF80000C4
:108B50000294684600F04CF806B070BD03208DF812
:108B6000000025B12878C00701D0012000E00220D4
:108B70008DF8080000208DF80C0041F20110ADF8CE
:108B80000A00E6E706208DF80000E2E710B504468B
:108B9000408800F035FFA080024801682046BDE80B
:108BA00010400847402200202DE9F04107460024EC
:108BB000064E074D05E000BF56F82410384688479A
:108BC000641CE8788442F7DBBDE8F08114280020BB
:108BD0006022002010B50446408800F011FFA080FC
:108BE000024801682046BDE81040084784EC0200B6
:108BF0000149096808470000D8EC020070B586B04A
:108C0000044614216846FDF758FCA0890125A0F50B
:108C10004040ADF8040020782A4E062833D2DFE821
:108C200000F0320303032C48A08900F0BDF930B9ED
:108C3000E08943F6FE71A0F54040884223D8A07B2E
:108C40008DF80800207803280FD000208DF8090047
:108C5000A0680390606850B109208DF8000060683A
:108C60000490684603F0A8FD0DE00120EEE708201F
:108C70008DF800008DF81050F3E7A08900F094F90A
:108C800008B1E08930B17078002801D003F0C4FE4B
:108C900006B070BD606820B10B208DF800007570C3
:108CA000DFE70A208DF80000BDF8040003F03EFF66
:108CB000F5E713208DF800004FF6FF70ADF80400C3
:108CC000CFE700005022002038B504460E48007857
:108CD000A8B1A4F57F40FF380FD0684604F03EFBF2
:108CE00078B10521017001210171C480684604F04A
:108CF00043FB04F0F3FB002038BD042038BD022004
:108D000038BD082038BD0000082300200C4808B5F5
:108D1000007888B1684604F021FB78B10621017023
:108D2000684604F029FB0748017809B10121017365
:108D300004F0D4FB002008BD022008BD082008BDB7
:108D400008230020082B0020F0B587B014216846C6
:108D5000FDF7B3FB2B4C207818B16846FFF7A2FE55
:108D60004EE0201D01F026FCB8BB4FF010204169F9
:108D70000004026940694B1C01D100FB02F122484A
:108D800000220161A1F54051C160204901F0B2FF0C
:108D9000002820D11F481C238C221D49006801F0A7
:108DA0006FFB03F0F9FA050014D0022812D0002757
:108DB0000126062D12D005A804F0D0FA88B106705D
:108DC0000C2D18D2DFE805F0170F170F171617161E
:108DD000171113110B2007B0F0BD11E0267067606A
:108DE000BBE70820F7E7077105E0032100E0022157
:108DF000017100E0067105A804F0BEFA04F06EFBF4
:108E00000020E8E708230020A423002090ED0200C2
:108E1000542A0020F8EC020038B5040014D069464A
:108E200004F01AFCA0B1BDF8000000EB8001094875
:108E300000EB8100C16849B1A17A39B1C168491E0E
:108E4000C1600020A07238BD052038BD062038BDA5
:108E50000A2038BDE02A00201FB501A9684604F0A9
:108E6000B7FB04B010BD07B513460A46694600209B
:108E700004F0AEFB0EBD07B513460A460021684656
:108E800004F0A6FB0EBD20B119B1006808600020F7
:108E90007047052070470000F8B50D46040018D053
:108EA000BDB1694604F0D8FBA8B1BDF800000B497C
:108EB00000EB800001EB800001210C30666801F0BE
:108EC0007CFB2E6060680C3068600120A07200207E
:108ED000F8BD0520F8BD0A20F8BD0000E02A0020FA
:108EE00018B10323002205F029BD05207047022395
:108EF000002205F023BD12B1022305F01FBD05209D
:108F000070470000084910B50A69042A0AD0074AC8
:108F1000096942F8210004480121103001F04DFB9D
:108F2000002010BD0C2010BDE8220020442A0020A3
:108F300038B5044609480D46007858B164B1694611
:108F4000284605F0F5FD002803D1BDF8001021806A
:108F5000658038BD022038BD052038BD08230020BB
:108F600010B504460E48007898B1A4B121880229B2
:108F700013D80C4A01EB810002EB80026088528911
:108F8000C31C934209D805F0C7FD002020806080F3
:108F900010BD022010BD052010BD042010BD000032
:108FA00008230020E02A002043F6FE71A0F540408F
:108FB000884201D8012070470020704710B5044650
:108FC0000078182802D1FEF7BBFC207010BD10B548
:108FD00004460078182802D1FEF7B2FC207010BDBC
:108FE00070B50D460446B0F89810D0F894000122F0
:108FF000FEF711FA00B1057004F13C0204F194018E
:1090000004F1540072DF70BD70B5134600220646AD
:109010001546862902D0112902D002E0012200E083
:1090200001250D4C73B1A179FEF7AEFC2A4661799A
:109030003046FEF7A9FC0022A1783046FEF7A4FCDA
:10904000002203E0A178FEF79FFC2A4661783046B3
:10905000BDE87040FEF798BC78220020F7B51746AF
:109060000E0011D00098002560B10024214668460A
:1090700001F085FA18B1A0B23946B0476D1C641CE6
:10908000142CF3D32846FEBD0020FEBD406804F03A
:1090900085B900000EB51BA19DF8080020F00F0057
:1090A000401C20F0F00010308DF808000F2202A8BC
:1090B0007CDF20B1174A4FF48F71FDF7ABF840F217
:1090C000C33078DF20B1134A40F22511FDF7A2F832
:1090D0000020009001905021ADF80400ADF8001080
:1090E0004FF4C870A021ADF80600ADF80210684634
:1090F0007ADF002804D0074A40F22F11FDF78AF8E2
:109100000EBD00004E6F726469635F54656D706CD4
:1091100061746500386D020070B508B1012070BD42
:10912000194C0025207B08B1257301E000F0A0F860
:109130002078082826D2DFE800F02504080C102546
:109140001420BDE8704000F021B8BDE8704000F088
:109150007DB8BDE8704000F05FB8BDE8704000F039
:109160003BB86088084900EB8000283901EB80009B
:109170004068BDE8704003F0EFB86560BDE870403E
:1091800003F0F8B80F2070BD082B00201149F0B48F
:109190008A1C00200346A1F128050C18A67A4EB1BE
:1091A000A37200EB800405EB8404E66816B9247C06
:1091B000012C0AD0401C80B20228EED30B704B80E9
:1091C0004B60F0BC41F61D5070471080F0BC00F0C1
:1091D0003DB80000082B00200C48418801EB8102BB
:1091E000A0F1280101EB8201CA6852B1052101708A
:1091F000074802218180016800230122054801F00F
:10920000E3BC042202704968F6E70000082B002046
:1092100010230020A423002038B50A49084803245D
:109220000B684268898803EB810153880470DB1C5A
:1092300000201B0400909B0B034801F035FE38BD55
:10924000082B002010230020A4230020074910B57C
:109250004888091D04F050FA18B1BDE81040FFF726
:10926000DBBFBDE81040FFF7B7BF0000082B0020B0
:10927000F0B51F481F490125067802248B88A0F10C
:109280002802082E19D2DFE806F00418181B222F36
:109290002F170189491C01810021418080F80C10A1
:1092A00001EB810312F8233043B100234418491C19
:1092B00089B2A3720229F3D30570F0BD0123F5E74B
:1092C00042685288D21C1A448A800470F0BD4688D5
:1092D0000D6806EB860602EB860256680E60556046
:1092E00013818C80062100E007210170F0BD000091
:1092F000082B00201023002030B501888488224DDF
:1093000085B0502924D0522902D0542931D103E00C
:10931000204600F03FFE2CE014221C496846FDF771
:10932000B3F8ADF80240204600F06AFBADF8040047
:1093300000F022F9002269792046FEF725FB002281
:1093400029792046FEF720FB6846FFF71FFC10E056
:10935000017B01290DD1817A01290AD10089A0F56B
:109360002451023905D10121204600F047FE05F0C5
:1093700031F900220649E878FEF7BAFA05B0BDE8EF
:10938000304004F011BC00003822002000EC020044
:10939000C171020010B50446007800280FD1608822
:1093A00000F0F8FD608800F081F9002807D004493A
:1093B000608801220979BDE81040FEF7E5BA10BDCA
:1093C0003822002010B5124C00202070FEF7B8FAA9
:1093D000A070FEF7B5FAE070FEF7B2FA2071FEF762
:1093E000AFFA6071A17818290FD0E17818290CD054
:1093F0002179182909D0182807D00121601C03F011
:109400009FFD01202070002010BD032010BD000032
:10941000382200207CB50446007808282FD1607AD5
:1094200038BB207A4FF6FF7501280DD0072802D0EF
:10943000082824D11EE0A08800F020FAA8421ED0FF
:10944000012100F0DBFD1AE0A0886A46012103F04B
:10945000CBF870B90198007858B1A08800F00EFAE6
:10946000A8420CD0084901220979FEF78DFA04F0D0
:109470009BFB04E004480021401C03F09CFDBDE878
:109480007C4005F0A7B800003822002010B5044643
:109490000A4841782046FEF75FFA68B10848002183
:1094A00001EB410200EB82025288A24201D1C8B214
:1094B00010BD491C1429F3D3FF2010BD4A220020FF
:1094C0000426002070B5094D094E002404EB440029
:1094D00005EB800071784088FEF73EFA20B1641CED
:1094E000142CF3D3FF2070BDE0B270BD0426002021
:1094F0004A2200202DE9F041804602460120002149
:10950000FCF7AFFF1A4F05460E467868FDF70AFED6
:1095100000280CD1174CD4E9062110462A4001EA54
:1095200006031A4305D0A843B143C4E90601BDE8C8
:10953000F081404602F080FD30B1D4E904012843B7
:109540003143C4E9040105E0D4E90410A943B04360
:10955000C4E90410D4E9060128433143C4E90601F3
:10956000A1687868BDE8F0410022FDF797BD0000D2
:10957000E4EC0200A02200201CB5054AD2E9021248
:10958000CDE900120022694603F053F81CBD00002B
:1095900018EC020003484FF6FF7181800121017031
:1095A00000207047442200202DE9FC41804600F055
:1095B00027FA002403250127A0F57F412646FF391D
:1095C00008D06A46082103F00FF818B90198841DE5
:1095D0008688056832462B4621464046B1DF04287E
:1095E00004D0082804D00B2808D002E0112000E0A5
:1095F0000020002F00D10B20BDE8FC810027A80728
:1096000001D50125E6E73443F5D00024264603259D
:10961000E0E72DE9FC41804600F0F2F90646A0F5AE
:109620007F40FF380ED001252A466D1C0027ADB2C1
:109630006B460821304603F001F8040006D0072CE1
:1096400025D025E043F20200BDE8FC810199032307
:109650000A1D0B604046891DB2DF040004D00C2CAB
:1096600009D0052C09D009E032460821104603F044
:109670005BF804460CE0012700E000240821304696
:1096800003F03EF800B10324002FCDD100E00C24FC
:109690002046D9E704488088A0F57F41FF3901D0F2
:1096A00004F08CBA70470000442200200EB502A9D5
:1096B000019100F0A5F96A46012102F095FF08B179
:1096C00000200EBD019800780EBD00002DE9F0418C
:1096D00007464FF6FF760A48B3DF10B10320BDE816
:1096E000F081074C43F20305A41E324661883846D8
:1096F000AFDFA842F3D16088401C6080F5E700002E
:1097000046220020428800EB82020C328A4201D9B4
:10971000022070478188A1F57F42FF3A03D000887C
:1097200008B10020704701207047884204D20068C9
:10973000401C01D001207047002070473EB50278E0
:1097400002230C46B3EB520F17D1B0F80110ADF85D
:109750000010C1788DF802108188ADF8041080796E
:109760008DF8060002AA01A92046FDF7EFFA0322B0
:1097700002A96846FCF7B3FE08B100203EBD0120F7
:109780003EBD000010B50C46FFF780FEFF280CD050
:10979000074900EB400001EB80004168216001892E
:1097A000A180807AA071002010BD052010BD0000AE
:1097B0000426002070B5018890B0102959D1011DF0
:1097C0002C226846FCF760FE9DF804004FF6FF76F9
:1097D000032134466D46B1EB500F2AD003F05AF8FE
:1097E0009DF8040040080ED001280CD0022820D19A
:1097F00018E00D99281D1131FDF7F6F918B100BFD9
:10980000BDF82C4015E00CAA0BA9072003F016F8B0
:109810000028EED10DE00D99281D491CFFF78EFFA1
:109820000028EDD10CAA0BA9072003F007F80028A7
:10983000F1D1BDF80000291D00F0CCFDB44218D0D4
:10984000BDF80000214600F0C5F8BDF80000ADF8F5
:109850002E000020ADF83040074E8DF82C000BADE7
:10986000044600BF56F8241028468847641C022C82
:10987000F8D310B070BD00002CEC0200094A0021A2
:1098800001EB410332F82330834205D101EB410063
:1098900002EB800040887047491C1429F0D34FF632
:1098A000FF707047042600203EB50C46054602F0C6
:1098B000F1FF0BE0BDF80000A04207D02846029956
:1098C00000F02EF810B1BDF800003EBD01AA6946B7
:1098D000072002F0B3FF0028ECD14FF6FF703EBD29
:1098E00010B50D4C18200D4A607000204FF6FF7126
:1098F00000EB400302EB8303401C59801428F7D38C
:10990000FEF71EF86070182803D001202070002098
:1099100010BD032010BD00004A22002004260020B4
:109920002DE9F0410C46054600F1110701F1110641
:109930001022491C401CFCF7D2FD48B9681C00F0FD
:10994000B9F928B1601C00F0B5F908B1012400E0B4
:10995000002431463846FDF747F93B780222B2EB46
:10996000530F0CD00321B1EB530F08D03378B2EB77
:10997000530F04D0B1EB530F01D0012100E00021BF
:10998000084201D18C4302D00120BDE8F0810020C3
:10999000FBE7018811B9421892780AB1012070479B
:1099A000491C0829F7D30020704710B50C46034620
:1099B000FFF7EFFF00280AD018882188884205D1D8
:1099C0000822A11C981CFCF78AFD08B1002010BDDC
:1099D000012010BD03F0FEB870B50446FFF74EFF3E
:1099E0000546204602F003FE4FF6FF7104468D4205
:1099F00003D014B9284603F0EDF8204670BD0000EE
:109A000010B5FFF743FDFF2805D0044900EB4000E7
:109A100031F8200010BD4FF6FF7010BD0426002065
:109A20003EB5044602F036FF0EE00199204646316D
:109A3000FFF7BBFF28B9019920462A31FFF7B5FF90
:109A400010B1BDF808003EBD6A4602A9072002F029
:109A5000F5FE0028E9D14FF6FF703EBD10B50A496A
:109A600041600A4800F0A6FD58B902F051F90749D3
:109A70001C238C22087404488C39001F006800F0F5
:109A8000FFFC002010BD000084ED0200A42B00208C
:109A90002DE9F0412D4F002518B17D600120BDE872
:109AA000F0810879012258B1294E01280CD0274CA9
:109AB0004FF002080834022821D0032842D128E0C0
:109AC0000A7102F057FC3BE05FF0000000EB800100
:109AD00016F82110022908D0401C80B20228F5D3C4
:109AE0003A707D6041F61D50D9E700EB800006F822
:109AF000205006EB8000406802F02EFC20E00D7143
:109B0000A4F80480002301221248216801F05CF8C7
:109B100016E00D71206802F01FFC0D492368283102
:109B2000498801EB810206EB8201D1F804C0C4F838
:109B300000C04B60A3880B81A4F8048006F8225073
:109B40000028ACD07D600E20A9E70000082300208B
:109B5000E02A0020A42300200146034802888A420C
:109B600000D00020704700005C2500202DE9FC5F3C
:109B70000E008346DDE90C47C6F100009846924688
:109B8000814600D40846012503E000BF90FBFAF0AF
:109B90006D1C5045FADAA84500D9454624B1002E7F
:109BA00001DB780700D5641EB80702D5B8F1000FB5
:109BB0000AD0F80708D13CB1A54205D22021584669
:109BC000641EFEF711FCF6E7002E02DA4E462D2148
:109BD00002E0780703D52B215846FEF705FC07F075
:109BE000030002280BD1B8F1000F08D13CB1A54207
:109BF00005D230215846641EFEF7F6FBF6E7CDE9A4
:109C00000047434652463146584604F089FCBDE8B9
:109C1000FC9F024600201268930702D0530702D42B
:109C20007047500714D502F00300012802D0022823
:109C30000CD105E0C2F383100B68801C184404E0CB
:109C40000223086803EB9252104408600120704719
:109C5000086800EB9253C2F38910401CEEE7000045
:109C60000248007A002800D001207047A42B002071
:109C7000F0B58488A518944200D82246A41AC28858
:109C8000D6189A4200D81346D21A4B880788BB428E
:109C90000CD34088834209D88888A04206D3A842C2
:109CA00004D8C888904201D3B04201D90020F0BD49
:109CB0000120F0BD0021425C0AB101207047491C1F
:109CC0001029F8D300207047800701D0002070478A
:109CD000012070470A4810B5807860B1002401E087
:109CE000022C06D02046FEF7FFF8641C042CF7D3A4
:109CF00010BD0324F6E7BDE81040FEF719B90000D7
:109D00001822002003480179C90702D00078FEF725
:109D100047BA704718220020172101804180002196
:109D2000017141711B218171C17170472DE9FE4F95
:109D30002B4D984691460F00824601D000260DE03B
:109D4000684600F073FB6A460021504602F0BBFBF8
:109D50002878009E10B99DF8090098B14A4631460E
:109D6000504604F051F90446014600225046FFF7E0
:109D70004BF90D2C32D008DC84B3082C2ED00B2CE0
:109D80000BD12BE00520BDE8FE8F112C10D0862CC6
:109D90001AD0A4F54050023820D00325B8F1000FA6
:109DA00004D0324621465046FEF7B6FE2846EAE782
:109DB0003A4629795046FDF7E7FD4A46E97850468C
:109DC000FDF7E2FD0025E9E73A4629795046FDF71F
:109DD000DBFD4A46E9785046FDF7D6FD2546DDE72E
:109DE000782200202DE9F041204F0E46154604460A
:109DF0003978FDF7B1FD002835D0204602F05AFB36
:109E000050B32046FFF7FCFD80462046B978FDF7A9
:109E1000A3FD08B1012700E00227204602F0F2FD71
:109E20000028404602D0FFF7D7FD0DE0A8F57F419E
:109E3000FF3909D0072102F063FC010004D0052995
:109E400002D0204603F074FE2B46324639462046A7
:109E5000BDE8F041FEF74ABC2A4631462046BDE83F
:109E6000F041FEF7B9BDBDE8F0810000702200208E
:109E700070B5094D0646E978FDF76EFD044629796F
:109E80003046FDF769FD014622463046BDE8704088
:109E90000123FFF74BBF0000782200202DE9F04797
:109EA000394E002780463D46DFF8E090D6F804A002
:109EB00057E003D00446D0F81C8035E099F8002024
:109EC00002EB4201521CD2B289F8002009EBC10119
:109ED00099F80230091D9A4201D189F8005048686A
:109EE0000A780446012A12D0022A02D0032A3BD162
:109EF00008E004F071FA00B10127257434E005741C
:109F0000C06900E070680028F9D170602CE0207C06
:109F100050BB88686060C868A0600869E0604869F4
:109F2000A061F07800B165606268B168184B501AA2
:109F300020F07F40984202D2A168084406E0881AC7
:109F4000A16820F07F40814202D9081A206000E019
:109F5000256065600120A56020742046E56104F05D
:109F60001DFAB8F10000A4D199F8001099F8010089
:109F70008142A3D117B97168514502D00120BDE8D3
:109F8000F0870020FBE70000C022002020290020ED
:109F9000FFFF7F0030B585B00546002414216846D8
:109FA000FCF78BFAA5F57F40ADF80250FF3815D0CD
:109FB0002846FFF7F9FA98B10B2815D0112811D0CF
:109FC000A0F54051023903D00146284603F09CFD1C
:109FD00009482246C1782846FDF7D6FC05B030BDB9
:109FE0000E2002E00124F3E70F208DF80000684600
:109FF000FEF7CCFDECE70000382200200A460249BB
:10A000008978FDF7C1BC000038220020F8B505466C
:10A0100000780C46002620420FD100208DF8000069
:10A020006846FDF78FF82878204202D12043287037
:10A0300001269DF80000FDF7A9F83046F8BD0000A4
:10A040002DE9FF410026234800F0B1FA2148001F06
:10A05000074600F0ACFA204C60680090A56800E06C
:10A0600000986946284004EB80000C30FFF7D1FDD2
:10A070000028F5D101AA009901EA050304EB830346
:10A08000491CDB6842F82030401C00910228F2D3C2
:10A09000019800F0030001280BD0022810D101988C
:10A0A000032101EB90500099BDF80A6001EB90008C
:10A0B00005E00198BDF80A60C0F3831008440090E1
:10A0C000384600F071FA08B10098606004B030467C
:10A0D000BDE8F081DC300020C42C002088B04FF4B3
:10A0E0000041002001F0C8FA20B1424A40F2DE21CE
:10A0F000FCF790F801F022F9FCF7A6FF20B13D4AE9
:10A100004FF48071FCF786F83B490320FDF7FEFF12
:10A1100020B1384A4FF43471FCF77CF869460020CE
:10A12000FDF72AFF20B1334A40F2D321FCF772F841
:10A130009DF8000002285AD05FF0000401F0BAFB3D
:10A1400020B12C4A40F2EA21FCF764F8FDF756FEF4
:10A15000FEF7A0FF0021294800F0BFFA20B1254AF0
:10A160004FF49C71FCF756F8FCF786FD24480090EC
:10A17000224800266946143000F06FFB20B11D4ACA
:10A180004FF4B771FCF746F81C216846FCF795F9C7
:10A190004FF42030CDE900604FF470200290194850
:10A1A0000590032518488DF80C500690ADF80E6008
:10A1B0008DF810606846FDF757FB20B10D4A4FF44B
:10A1C000DE71FCF727F802F013FD104810A100889B
:10A1D00005EB004001F0D0F92046FCF783FD00BFFD
:10A1E00001F0BAF80028FBD101F078FBF8E7012470
:10A1F000A4E70000386D020041800200F82300202F
:10A2000021B9020035C1020089860200E82300203E
:10A2100054656D706C617465206578616D706C65F6
:10A2200020737461727465642E00000070B514466A
:10A2300082880E4605462088111D0144921C9942D1
:10A2400001D8FE2A01D90C2070BD521C325420883E
:10A25000FF21401C80B2208031542088401C80B2F5
:10A2600020808119288804F045F92188084480B2AB
:10A270002080AA8842B1A96841B13044FCF704F9B2
:10A280002088A98808442080002070BD072070BD68
:10A290002DE9F047C7880446181D16468946B0FBCD
:10A2A000F7F1B0FBF7F207FB12009A193A44D21CFF
:10A2B000B2FBF7F2DDF820A001E02468491E002976
:10A2C000FBD13D1A8846B54216D818E0BAF1000F06
:10A2D00005D0211809EB08002A46091D04E0204496
:10A2E00009EB08012A46001DFCF7CEF8002024687F
:10A2F000761BA844B74201D9354600E03D46002E02
:10A30000E4D1BDE8F087000030B5024659B101F054
:10A31000DFF90021074C09E004EB810315685B8835
:10A32000AB4202D11160002030BD491C8142F3D301
:10A33000052030BDB8230020F8B50F46017814463B
:10A340000546012901D1687830B12088821C9A42E3
:10A350002DD8012902D006E00720F8BD6978014414
:10A36000891C994223D8181A801E86B2ADF8006065
:10A370002188B81C084469467DDF0028EDD1287883
:10A38000022805D1BDF80010B14201D809210AE028
:10A390000821012805D16878B04202D8ADF8000044
:10A3A00001E0ADF80060BDF80000FE2801D90C20E6
:10A3B000F8BD2288401CB8542088401C80B2208000
:10A3C00039542088401C2080BDF8001008442080AB
:10A3D0000020F8BD70B505460C004FF0FF0020D0FE
:10A3E0004FF6FF76B5421CD00E4801224178284630
:10A3F000FDF7CAFA2846FFF749F8FF2803D1FFF70F
:10A4000061F8FF280DD0084B00EB400203EB8201FE
:10A410004D8023F8226022684A60A2880A81A279CE
:10A420008A7270BD4A22002004260020034A0021BF
:10A430009268C0E900218160704700007822002006
:10A4400070B54FF6FF750E46A84201D1002000E01E
:10A45000401C84B208E02146304602F0A0FD08B15D
:10A46000204670BD641CA4B2FF2CF4D9284670BDF0
:10A4700010B5FBF728FF08B1002010BD112010BD5A
:10A4800010B531B1B2FBF3F403FB14241CB1092065
:10A4900010BD0E2010BD01600021416081608281ED
:10A4A000C381084610BD70B50C460546FBF7C0FEDB
:10A4B000002802D021882868084470BD10B50A8899
:10A4C00049888A4203D1FBF7F5FE012010BD002028
:10A4D00010BD70B50C460546FBF7CFFE002802D034
:10A4E00061882868084470BD10B50A8849888A4286
:10A4F00003D1FBF7B9FE012010BD002010BD01F013
:10A500001F0301229A40D243490900EB8100114602
:10A5100000F059B80A4601F01F030121994010B517
:10A5200052090C4600EB820000F05DF8204000D09C
:10A53000012010BD2DE9F04180460D460024481E43
:10A54000012101EB501716E058F82400C04390FA9F
:10A55000A0F0B0FA80F020280CD200EB4416AE42F6
:10A5600008D231464046FFF7D5FF0028ECD13046EF
:10A57000BDE8F081641CA742E6D82846F8E74A09FE
:10A5800050F8220001F01F0201219140084000D044
:10A590000120704701F01F0301229A40490900EB96
:10A5A0008100114600F029B8002100F017B8012100
:10A5B00000F023B8012100F016B808B56A46FBF791
:10A5C000CEFE009808BD08B56A46FBF7AEFE0098BF
:10A5D00008BD08B56A46FBF7C2FE08BD08B56A4665
:10A5E000FBF7A3FE08BD08B56A46FBF791FE08BD60
:10A5F00008B56A46FBF780FE08BD08B56A46FBF75A
:10A6000087FE009808BD08B56A46FBF7B5FE0098BE
:10A6100008BD38B5044600258DF800506846FCF7A3
:10A6200091FD21686268086890420ED9401E08605A
:10A630000178A38AE26801FB0325227A2168101AB7
:10A64000C0B20A79824200D208719DF80000FCF77E
:10A650009DFD284638BD38B5054600208DF8000020
:10A660000C466846FCF76EFDE868A98A201AB0FB24
:10A67000F1F12A681068431C136001709DF8000016
:10A68000FCF784FD38BD10B530B1017A426803682B
:10A69000891AC9B21A6006E00E2010BD03681A6854
:10A6A000541C1C601170491EC9B2F7D20068002109
:10A6B0000171084610BDC20800F007030120895C43
:10A6C00098400840704710B5C20800F00703885C46
:10A6D00001249C402043885410BD10B560B1016135
:10A6E000172120F8021B20F8021B1B2100F8021B77
:10A6F000FFF712FB002010BD0E2010BDF0B58588BD
:10A7000093B00C46002D39D1018800263E4F2429F4
:10A710003BD006DC102909D011290CD0232958D1AF
:10A720004FE03A290BD0552953D129E00146204664
:10A7300001F01AFD4DE0A01DFFF7EEFA49E02246B8
:10A74000408934F8061F814200D8084660801728E7
:10A7500000D217206080106970B1607960B1D7E9CC
:10A760000001CDE90301ADF80E506088ADF810008E
:10A77000136903A9104698476671267113B0F0BD9E
:10A780000146204601F040FD23E0011D2C2206A8D1
:10A79000FBF77AFEBDF81800BDF81C2004EBC001E1
:10A7A0004A732269AAB1D7E90423CDE90423ADF89D
:10A7B0001200487B8DF814002269204604A99047B6
:10A7C00007E0017A207B884200D201462846FDF747
:10A7D000AFFFA07A0028D1D0E1882846A5DF012567
:10A7E00070B11128CAD001F02BFB0246074808A11E
:10A7F000008813B005EB0040BDE8F04000F0C0BE9B
:10A80000A672E572BAE7000034EC0200B82300201B
:10A8100073645F626C655F67617474635F657863BE
:10A8200068616E67655F6D74755F7265717565737C
:10A830007428292072657475726E65642025732EE4
:10A840000000000020B10278DE2A03D00820704703
:10A850000E20704741800020704760B159B10278E6
:10A86000DE2A0AD009684160DE2101704FF6FF71CF
:10A870004180002070470E207047082070477FB548
:10A88000054600294DD0002D4BD008780C46DE2817
:10A8900047D1A8886188884202D1204603F0EAFEA9
:10A8A0002888012825D002283BD011283AD05128E9
:10A8B00037D135F8040F6188884232D1A978A81CB5
:10A8C00002292ED1017A042903D0062901D00529B5
:10A8D00027D10021009102228DF8002001914FF430
:10A8E000C07202910391ADF80420007A05280FD0C0
:10A8F00010E0297A2046012913D1A9884288914283
:10A900000FD10121017204B0BDE8704003F0B2BE66
:10A91000ADF8041028886946B0DF002801D06168CE
:10A9200088477FBDA88861888842FAD14FF6FF70BA
:10A9300060807FBD00F180400068002800D00120C9
:10A94000704708B500F18040002101600068009068
:10A9500008BD000070B50B4C207808B185250FE0CC
:10A960000020A06060602061E060074801F088FA84
:10A97000054601F0CDF908B901F06CFA012020700C
:10A98000284670BD60280020F984020038B50025F3
:10A990008DF800506846FCF7D5FB074CE068401E78
:10A9A000E060E06810B901F07BFAA5709DF8000046
:10A9B000FCF7ECFB38BD0000602800200FB408B5A0
:10A9C0000399002904D004AA00926A4600F00FF807
:10A9D00001B05DF814FB10B582680446002A05D06A
:10A9E000D4E90403216898470020A06010BD2DE938
:10A9F000FC4791460C00804676D014F8011B39B113
:10AA000025290ED04046FDF7EFFC20780028F4D130
:10AA100098F80C00002867D04046BDE8FC47FFF7D7
:10AA2000DABF0020012221782B291BD02D2902D04A
:10AA3000302908D102E040F0010001E040F00200BE
:10AA4000641C002AEFD100252A290ED02178A1F11B
:10AA500030020A2A11D205EB850201EB4205641C83
:10AA6000303DF1E740F00400EAE7D9F800100B1D93
:10AA7000C9F800300968641C0D44217800232E2990
:10AA80000BD114F8011FA1F130020A2A05D203EB01
:10AA9000830201EB4203303BF3E76C290DD06829B8
:10AAA0000BD0692921D00BDC252918D0582931D0A9
:10AAB00063290ED0642915D117E014F8011FECE7C3
:10AAC000702969D0732932D075291BD0782909D112
:10AAD00020E0D9F80000011DC9F8001001784046B7
:10AAE000FDF782FC641C90E76CE0D9F800100A1DA9
:10AAF000C9F800200968CDE900500A224046FFF756
:10AB000035F8EFE7D9F800100A1DC9F800200968E8
:10AB10000A2206E0D9F800100A1DC9F800200968C9
:10AB20001022CDE90050404603F0FAFCDAE7D9F8EC
:10AB3000001000270A1DC9F800200E68C00705D1C3
:10AB400012E04046761C7F1CFDF74EFC3178002950
:10AB5000F7D104E0202140466D1EFDF745FCBD42C3
:10AB6000C0D9002DF6D1BDE74EB13046FBF7B0FCA1
:10AB7000074604E0202140466D1EFDF735FCBD422E
:10AB800006D9002DF6D103E04046761CFDF72CFCDB
:10AB900031780029F8D1A5E7D9F80000011DC9F8DE
:10ABA0000010056830214046FDF71EFC7821404624
:10ABB000FDF71AFC08200021CDE900010346102210
:10ABC0002946B0E7BDE8FC872DE9F84F2B4E04007D
:10ABD0009A4630884FF001031546894603EB004042
:10ABE00024D0216800292BD0002D32D0626849463C
:10ABF0004FF010071268A2F1010C1CEA090F11D1E5
:10AC000098466A432046FCF708F800282AD02068B6
:10AC100053462A46066901B049462046B446BDE877
:10AC2000F04F6047164B17A2009721E00E210091CC
:10AC3000134B1EA21FA100F0B2FC0E20BDE8F88F3E
:10AC4000082100910E4B26A21AA100F0A8FC0820B2
:10AC5000F4E7092100910A4B24A216A100F09FFC01
:10AC60000920EBE700973188054B214A08EB0140AA
:10AC700010A100F094FC1020E0E70000D823002091
:10AC80006BED0200616464725F69735F7061676598
:10AC90005F616C69676E656428705F66732C2070F5
:10ACA0006167655F6164647229000000705F6673AC
:10ACB00000000000257320636865636B206661698E
:10ACC0006C656420696E2025732829207769746873
:10ACD0002076616C756520307825782E00000000A4
:10ACE000705F66732D3E705F617069006C656E0009
:10ACF000F8F0020038B503000F484FF001054FF09F
:10AD00000E04008805EB004009D061B119600C68A1
:10AD100001B0A446BDE83040114618466047074BD5
:10AD200007A2009402E0054B07A2009408A100F0DE
:10AD300036FC0E2038BD0000D823002020ED020094
:10AD4000705F667300000000705F61706900000052
:10AD5000257320636865636B206661696C65642098
:10AD6000696E202573282920776974682076616CC4
:10AD7000756520307825782E000000002DE9F0411F
:10AD800028B1016819B1C969BDE8F04108470D4D06
:10AD90000D480024461B14270DE000BF04EB84007F
:10ADA00005EB8000016829B1C969884710B101200D
:10ADB000BDE8F081641CB6FBF7F0A042EED800209D
:10ADC000F6E70000A4230020B82300200448012156
:10ADD0004174007A08B100207047012070470000DC
:10ADE000A42B0020012801D0032808D10449002207
:10ADF00001284A7400D00020087402F01FBB70477D
:10AE0000A42B002070B50246022801D0032A45D1A8
:10AE1000234C207A002841D0012833D0022831D198
:10AE200020480023022A006802D0032A2AD11BE00E
:10AE3000E360017911B1012924D10DE0D0E9056564
:10AE4000711B4FF48056B14200D3314629448161D1
:10AE50004569A9420ED015E00169491C01614269AA
:10AE600091420FD1237213E0E168491CE160082987
:10AE700008D9E3602372022A0AD00D21FDF722FED1
:10AE800002F082FA607C28B1BDE8704000F046BF55
:10AE90000021F3E7BDE8704002F0D0BA70BD0000B9
:10AEA000A42B00202C2300202DE9F84F3A4D04005C
:10AEB0008B4628884FF00106DDF828A09846914679
:10AEC0004FF00E0106EB00401AD0B9F1000F1BD075
:10AED0002168002920D00921B8F1000F25D062682F
:10AEE0005368B8FBF3F703FB1782002A21D02B4BE2
:10AEF0002BA2009135A100F052FB0920BDE8F88F8C
:10AF0000264B3DA2009102E0244B3DA200912FA1CF
:10AF100000F045FB0E20F1E7082100911F4B3AA2FB
:10AF20002AA100F03CFB0820E8E71C4B39A2009165
:10AF3000E0E75846FBF76BFE102798B14846FBF751
:10AF400066FEB0B1424659462046FBF766FEB8B1F0
:10AF5000CDF800A0206843464A46C56859462046B9
:10AF6000A847CBE7009728880C4B06EB00402AA2A5
:10AF70000CE000972888094B06EB00402CA205E066
:10AF800000972888054B06EB004032A20FA100F085
:10AF900006FB1020B2E70000D823002058ED020085
:10AFA00021286C656E202520705F66732D3E705FD2
:10AFB000666C6173685F696E666F2D3E70726F6755
:10AFC00072616D5F756E69742900000025732063DE
:10AFD0006865636B206661696C656420696E202515
:10AFE00073282920776974682076616C7565203034
:10AFF0007825782E00000000705F66730000000066
:10B00000705F737263000000705F66732D3E705F47
:10B01000617069006C656E00616464725F69735F82
:10B02000616C69676E6564333228646573742900E6
:10B03000616464725F69735F616C69676E656433D4
:10B0400032282875696E7433325F7429705F7372A9
:10B0500063290000616464725F69735F7769746873
:10B06000696E5F626F756E647328705F66732C2003
:10B07000646573742C206C656E2900002DE9FF4116
:10B080001C46DDE90A7815460E46684600F040F891
:10B0900046EA450141EA840141EA072242EA0841C1
:10B0A000009A00EB8200C0F80017BDE8FF812DE98F
:10B0B000FF411C46DDE90A7815460E46684600F059
:10B0C00035F846EA450141EA840141EA072242EAAD
:10B0D0000841009A00EB8200C0F80017BDE8FF812C
:10B0E00013B50C46684600F021F8009900EB810189
:10B0F000D1F8002722F44032C1F80027009900EB74
:10B100008100D0F8001741EA0441C0F800171CBDC7
:10B110000168202902D24FF0A040704701F01F01C2
:10B1200001600148704700000003005001682029B9
:10B1300002D24FF0A040704701F01F0101600148AA
:10B14000704700000003005001B56846FFF7EEFFAE
:10B15000D0F810050099C84000F0010008BD38B5CE
:10B1600001240090684631B1FFF7D2FF00998C406E
:10B17000C0F8084538BDFFF7CBFF00998C40C0F8F8
:10B180000C4538BD1CB5094C0144D4E90034CDE967
:10B1900000346C4606E000BF54F82030D3F8103578
:10B1A000401C08C28142F7D81CBD0000DCEC020044
:10B1B000034908B50844002101600068009008BDFB
:10B1C0000060004002494058012800D0002070472C
:10B1D0000060004030B5124B01460020D3F8104407
:10B1E000224609E0157A854205D1401C0A28F7DB82
:10B1F0004FF0FF3030BD5268002AF3D1421CF9D025
:10B200000872D3F810242AB152684A60D3F8102487
:10B21000516030BD0022C3F810144A6030BD0000F8
:10B22000C42C00207047FBF709BB704708B5034AE0
:10B2300000924023024A00F005F808BD59DB0200E5
:10B24000C42B0020F0B595B01C4615460F460846A5
:10B250001A9E00F00DFB182109A8FBF72EF90E9697
:10B26000CDE909540023082203A9384600F015FB54
:10B2700005980690BDF81000ADF81C00BDF812004E
:10B28000ADF81E0001208DF821000398082600F07B
:10B290000300012802D0022818D032E00398334678
:10B2A000850AC0F3C2008DF8200003980FA9C0F3EF
:10B2B0008314A200384600F0F0FA09A8009006AB0B
:10B2C00022460FA9284600F02FFA1AE00398840DB1
:10B2D000C0F3C2008DF82000082C01D2254600E002
:10B2E000082533462A460FA9384600F0D6FA2E44E0
:10B2F000641B09AB06AA29460FA800F067F9002CC9
:10B30000EAD1384600F0BAFA15B0F0BD0A4A012970
:10B3100002EBC00007D0022907D0032907D0042977
:10B3200007D0002070470220704704207047007942
:10B330007047407970470000F4F7020010B5FFF73E
:10B3400072FF04210348FFF745FF024901204872BC
:10B3500010BD0000402300202DE9F04F8DB0FDF717
:10B3600053F818B100200DB0BDE8F08F7A4C4FF0C3
:10B37000000BC4F818B4BFF34F8F60680290A56843
:10B38000D846284004EB800008E0216802988142FA
:10B3900001D86160E6E7284004EB80000C3002A988
:10B3A000FEF737FC0028F0D105AA029901EA05034F
:10B3B00004EB8303491CDB6842F82030401C0291F7
:10B3C0000228F2D3059800F00300022802D00128D9
:10B3D0004ED0A9E005985022810D8946B2EB905FCE
:10B3E00000D850210E4666F39F50059008315B4807
:10B3F00000F0F5F9070079D000F03AFA4346082248
:10B4000005A9384600F04FFA029908F1080A2940C8
:10B41000681A8000001D864223D94F4D0C3530B18B
:10B42000C2B204EB8101301A90460C3104E0294687
:10B43000F2B2002590462846C6B25346384600F080
:10B4400032FA0AEB08032DB1324629464FEA0700CB
:10B4500000F029FA029909F1030001EB9000029033
:10B460003BE004EB81015346324638460C31EFE7AE
:10B470000598C0F38310062800D30620059960F3D1
:10B480008911C1F38310801C05918100334800F0BD
:10B49000A6F9070048D000F0EBF94346082205A9B9
:10B4A000384600F000FA08F1080800260FE002987C
:10B4B000434600EA0501401C04EB8101029004228E
:10B4C00038460C3100F0EFF908F10408761C0598B5
:10B4D000C0F38310B042EAD847B1D4F81054D4F87E
:10B4E000180468B1384600F0C9F92FE01CE0687A0A
:10B4F000012804D12A6828463946126890476D68A9
:10B50000002DF4D1384600F0B9F98DF800B0684646
:10B51000FBF718FED4F8180408B9029860609DF88B
:10B520000000FBF733FE11E0D4F8104404E021687A
:10B530002046896888476468002CF8D108480221B1
:10B54000008801EB004007A100F016F8FCF75CFF53
:10B5500080F0010007E70000C42C002074F802000E
:10B56000E82300204261636B656E647320666C752E
:10B57000736865640000000000231A4602F088BE6C
:10B5800008B5012300926A4602F082FE08BD1CB590
:10B59000CDE9002302236A4602F07AFE1CBD3EB5C7
:10B5A000069C8DE81C0003236A4602F071FE3EBD36
:10B5B00070B586B00DF1280C9CE870008DE87C0019
:10B5C00005236A4602F064FE06B070BD2DE9F0471F
:10B5D0000E4680461C46924608293ED894F80C90A8
:10B5E000002020731946104601F06CFE0025B5427C
:10B5F00006D218F805201AA12046FFF7DFF903E06C
:10B6000019A12046FFF7DAF96D1C082DEFD317A119
:10B610002046FFF7D3F90025B54210D218F805707F
:10B62000FAF72EFF0068C05D10F03E0F01D03A46D9
:10B6300000E02E220EA12046FFF7C0F903E00DA185
:10B640002046FFF7BBF96D1C082DE5D301222146EA
:10B65000504601F019FE84F80C90BDE8F087000018
:10B660002025303278000000202020007C000000DF
:10B670002563000020000000104810B5FF21816004
:10B68000002101604160C0F81814C0F8141480F85B
:10B6900020140B4800F0F0F800280DD109480A49A1
:10B6A0000A4B401AC108002003E000BF23F8200025
:10B6B000401C8842FAD3002010BD0000C42C00209A
:10B6C00074F8020074F80200F4F70200B8230020B6
:10B6D00002480349401AC0087047000074F802008D
:10B6E000F4F7020013B56846FEF70EFE08B100201D
:10B6F0001CBD0248009950F831001CBDF4F702004F
:10B7000070B508480125D0F8104480F8205405E0B1
:10B71000657221682046496888476468002CF7D123
:10B7200070BD0000C42C00202DE9FF4781460C9D10
:10B7300000200C462F7B287398461646294618464B
:10B7400001F0C0FD072E42D2DFE806F004090F1613
:10B750001F2A360049462846FFF730F937E04946A8
:10B7600028462268FFF72AF931E0D4E90023494648
:10B770002846FFF723F92AE0A0680090D4E90023C7
:10B7800049462846FFF71AF921E0D4E90201CDE93C
:10B790000001D4E9002349462846FFF70FF916E0D7
:10B7A00004F1080007C88DE80700D4E900234946E2
:10B7B0002846FFF703F90AE004F108000FC88DE8F6
:10B7C0000F00D4E9002349462846FFF7F7F8002286
:10B7D0002946404601F058FD2F73BDE8FF872DE94B
:10B7E000F041858A80462D1F4819C01CB0FBF5F03A
:10B7F000C6B24046FEF70DFF040019D000202071AC
:10B8000001206071E58000272546761EC4F800807F
:10B810000BE04046FEF7FDFE60B16179491C6171A5
:10B82000286005467F1CC0F80080B742F1D320464F
:10B83000BDE8F081204600F002F80020F8E72DE98D
:10B84000F041457901466B1E002201E00968521C57
:10B850009A42FBD30F680146002605E038460C6883
:10B86000FEF7F9FE2146761CAE42F7D3BDE8F08123
:10B870000121001DFEF7A1BEFEF705BF10B504466D
:10B880000121001DFEF7BFFE10F0FF0F04D120467E
:10B89000BDE81040FFF7D3BF10BD38B501240094B8
:10B8A000FEF7F6FC38BD38B500240094FEF7F0FC36
:10B8B00038BD0000064910B500204870091D086019
:10B8C000BFF35F8F0349044800F076FA002010BDF3
:10B8D00034230020C8ED0200B82B002008B500205A
:10B8E0008DF800006846FBF72DFCF1EE100A20F001
:10B8F0009F00E1EE100ABFF35F8F08494020C1F8B6
:10B9000080029DF80000FBF741FC00F001FA08B14D
:10B9100041DF08BD20BF40BF20BF08BD04E000E0FC
:10B9200002A240F24511FAF775BC00002E2E5C2EE3
:10B930002E5C2E2E5C6D61696E2E630020B1034972
:10B9400009680160002070470E207047A0EF0200D8
:10B95000FEB502460E460846FFF7F0FF00286ED1FE
:10B96000002400940194012506208DF80020ADF8F4
:10B97000040002948DF8025069462020326869DF85
:10B980002F4F48B100F05CFA3988024605EB0143BD
:10B990002C491846FFF7F4FD00948DF801508DF8FE
:10B9A0000240019402948DF80340694640203268B9
:10B9B00069DF40B100F044FA02463888224905EBBD
:10B9C0000040FFF7DDFD0094019402948DF80040E3
:10B9D00069460120326869DF48B100F031FA3988E0
:10B9E000024605EB014319491846FFF7C9FD4FF41C
:10B9F000B0600090019402946946A120326869DF2A
:10BA000048B100F01DFA3988024605EB01431049A0
:10BA10001846FFF7B5FD0094019402948DF800508C
:10BA20006946A020326869DF40B100F009FA024699
:10BA30003888084905EB0040FFF7A2FD0020FEBD55
:10BA4000F023002090F60200D8F60200F0F5020084
:10BA50003CF602009CF502002DE9F0410446D0F8C6
:10BA6000008060DF2168194D074641451CD92888B0
:10BA7000022606EB004016A1FFF77EFD288842460D
:10BA800006EB00401EA12368FFF781FDF006D0F809
:10BA90000C012168800200F10050421A288825A17B
:10BAA00006EB0040FFF76CFD012467B1384600F05B
:10BAB000C7F9024628882AA104EB0040FFF760FD81
:10BAC0003846BDE8F0812E480470F9E7F0230020E5
:10BAD000496E73756666696369656E742052414D7F
